{
  "contractName": "owned",
  "abi": [
    {
      "constant": true,
      "inputs": [],
      "name": "owner",
      "outputs": [
        {
          "name": "",
          "type": "address"
        }
      ],
      "payable": false,
      "stateMutability": "view",
      "type": "function"
    },
    {
      "constant": false,
      "inputs": [
        {
          "name": "newOwner",
          "type": "address"
        }
      ],
      "name": "transferOwnership",
      "outputs": [],
      "payable": false,
      "stateMutability": "nonpayable",
      "type": "function"
    },
    {
      "inputs": [],
      "payable": false,
      "stateMutability": "nonpayable",
      "type": "constructor"
    }
  ],
  "bytecode": "0x6060604052341561000f57600080fd5b336000806101000a81548173ffffffffffffffffffffffffffffffffffffffff021916908373ffffffffffffffffffffffffffffffffffffffff1602179055506101ce8061005e6000396000f30060606040526004361061004c576000357c0100000000000000000000000000000000000000000000000000000000900463ffffffff1680638da5cb5b14610051578063f2fde38b146100a6575b600080fd5b341561005c57600080fd5b6100646100df565b604051808273ffffffffffffffffffffffffffffffffffffffff1673ffffffffffffffffffffffffffffffffffffffff16815260200191505060405180910390f35b34156100b157600080fd5b6100dd600480803573ffffffffffffffffffffffffffffffffffffffff16906020019091905050610104565b005b6000809054906101000a900473ffffffffffffffffffffffffffffffffffffffff1681565b6000809054906101000a900473ffffffffffffffffffffffffffffffffffffffff1673ffffffffffffffffffffffffffffffffffffffff163373ffffffffffffffffffffffffffffffffffffffff1614151561015f57600080fd5b806000806101000a81548173ffffffffffffffffffffffffffffffffffffffff021916908373ffffffffffffffffffffffffffffffffffffffff160217905550505600a165627a7a72305820c9c05be08fde3963c19b1e2e94ed181e862f63ff1832a711dfbed1581cbaa9f30029",
  "source": "pragma solidity ^0.4.4;\n\ncontract owned {\n\n\taddress public owner;\n\n\tfunction owned() public {\n\t\towner = msg.sender;\n\t}\n\n\tmodifier onlyOwner {\n\t\trequire(msg.sender == owner);\n\t\t_;\n\t}\n\n\tfunction transferOwnership(address newOwner) public onlyOwner {\n\t\towner = newOwner;\n\t}\n}\n\ncontract Wager is owned {\n\n\tstruct Bet {\n\t\taddress clientAddr;\n\t\tuint amount;\n\t\tbool redWins;\n\t}\n\n\tstruct WagerEvent {\n\t\tuint moneyPoolFor;\n\t\tuint moneyPoolAgainst;\n\t\tuint numBetsFor;\n\t\tuint numBetsAgainst;\n\t\tuint matchId;\n\t\tbool takingBets; \n\t\tmapping(uint => Bet) betsFor; \n\t\tmapping(uint => Bet) betsAgainst;\n\t}\n\n\tevent TakingBets(uint _wagerEventId, bool _isBetting);\n\tevent MakeBet(address _better, uint amount, uint _wagerEventId, uint clientId, bool _redWins);\n\tevent Outcome(address _better, uint amount, uint wagerEventId, bool won);\n\n\tmapping(uint => WagerEvent) public wagers;\n\tuint numWagerEvents;\n\n\tfunction newWagerEvent(uint aMatchId) public onlyOwner {\n\t\tuint wagerEventId = numWagerEvents++;\n\t\twagers[wagerEventId] = WagerEvent(0, 0, 0, 0, aMatchId, true);\n\t\tTakingBets(wagerEventId, true);\n\t}\n\n\tfunction makeBet(uint wagerEventId, bool thinksRedWinner) public payable returns (bool success){\n\t    WagerEvent storage w = wagers[wagerEventId];\n\t\trequire(w.takingBets == true);\n\n\t\tif(thinksRedWinner){\n\t\t\tw.betsFor[w.numBetsFor++] = Bet(msg.sender, msg.value, thinksRedWinner);\n\t\t\tw.moneyPoolFor += msg.value;\n\t\t\tMakeBet(msg.sender, msg.value, wagerEventId, w.numBetsFor, thinksRedWinner);\n\n\t\t} else {\n\t\t\tw.betsAgainst[w.numBetsAgainst++] = Bet(msg.sender, msg.value, thinksRedWinner);\n\t\t\tw.moneyPoolAgainst += msg.value;\n\t\t\tMakeBet(msg.sender, msg.value, wagerEventId, w.numBetsAgainst, thinksRedWinner);\n\t\t}\n\n\t\treturn true;\n\t}\n\n\tfunction stopBetting(uint wagerEventId) public onlyOwner {\n\t    require(wagers[wagerEventId].takingBets == true);\n\t\tWagerEvent storage w = wagers[wagerEventId];\n\t\tw.takingBets = false;\n\t\tTakingBets(wagerEventId, w.takingBets);\n\t}\n\n    function distributeMoney(uint wagerEventId , bool redWon) public onlyOwner returns (bool success) {\n    \tWagerEvent storage w = wagers[wagerEventId]; \n    \tuint totalMoneyPool = w.moneyPoolFor + w.moneyPoolAgainst;\n    \trequire(w.moneyPoolFor > 0 && w.moneyPoolAgainst > 0 && totalMoneyPool > 0);\n    \trequire(w.takingBets == false);\n\n    \tuint moneyPoolRemaining = totalMoneyPool;\n    \tuint moneyToDistribute;\n\n    \tif(redWon){ // this is ugly, but it works\n\n\t    \tfor(uint i = 0; i < w.numBetsFor; i++){\n\t    \t\tmoneyToDistribute = (w.betsFor[i].amount * totalMoneyPool) / w.moneyPoolFor;\n\t    \t\tw.betsFor[i].clientAddr.transfer(moneyToDistribute);\n    \t\t    moneyPoolRemaining = moneyPoolRemaining - moneyToDistribute;\n    \t\t    Outcome(w.betsFor[i].clientAddr, moneyToDistribute, wagerEventId, true);\n\t    \t}\n\n\t    \tfor(uint g = 0; g < w.numBetsAgainst; g++){\n\t    \t\tOutcome(w.betsAgainst[g].clientAddr, w.betsAgainst[g].amount, wagerEventId, false);\n\t    \t}\n\n\t \t} else {\n\n\t \t\tfor(uint j = 0; j < w.numBetsAgainst; j++){\n\t    \t\tmoneyToDistribute = (w.betsAgainst[i].amount * totalMoneyPool) / w.moneyPoolAgainst;\n\t    \t\tw.betsAgainst[j].clientAddr.transfer(moneyToDistribute);\n\t    \t\tmoneyPoolRemaining = moneyPoolRemaining - moneyToDistribute;\n\t    \t\tOutcome(w.betsFor[i].clientAddr, moneyToDistribute, wagerEventId, true);\n\t    \t}\n\n\t    \tfor(uint y = 0; y < w.numBetsAgainst; y++){\n\t    \t\tOutcome(w.betsAgainst[y].clientAddr, w.betsAgainst[y].amount, wagerEventId, false);\n\t    \t}\n\t \t}\n\n\t \t//send remaining ether to owner\n\t \towner.transfer(moneyPoolRemaining);\n\n\t \t//invalidate contract\n\t \tw.moneyPoolFor = 0;\n\t \tw.moneyPoolAgainst = 0;\n\t \tw.numBetsFor = 0;\n\t \tw.numBetsAgainst = 0;\n\n        return true;\n    }\n    \n    function returnMoney(uint wagerEventId) public onlyOwner {\n        require(wagers[wagerEventId].takingBets == false);\n        WagerEvent storage w = wagers[wagerEventId]; \n        \n        for(uint i = 0; i < w.numBetsFor; i++){\n    \t\tw.betsFor[i].clientAddr.transfer(w.betsFor[j].amount);\n    \t}\n    \t\n        for(uint j = 0; j < w.numBetsAgainst; j++){\n\t        w.betsAgainst[j].clientAddr.transfer(w.betsAgainst[j].amount);\n\t    }\n    }\n\n    \n    //All the getters \n\n    //make some for getting Bet data\n\n\tfunction getMoneyPoolFor(uint wagerEventId) public constant returns (uint theMoneyPool){\n\t\treturn wagers[wagerEventId].moneyPoolFor;\n\t}\n\n\tfunction getMoneyPoolAgainst(uint wagerEventId) public constant returns (uint theMoneyPool){\n\t\treturn wagers[wagerEventId].moneyPoolAgainst;\n\t}\n\n\tfunction getMatchId(uint wagerEventId) public constant returns (uint theMatchId){\n\t\treturn wagers[wagerEventId].matchId;\n\t}\n\n\tfunction getNumBetsAgainst(uint wagerEventId) public constant returns(uint theNumBets){\n\t\treturn wagers[wagerEventId].numBetsAgainst;\n\t}\n\n\tfunction getNumBetsFor(uint wagerEventId) public constant returns(uint theNumBets){\n\t\treturn wagers[wagerEventId].numBetsFor;\n\t}\n\n\tfunction getTakingBets(uint wagerEventId) public constant returns(bool){\n\t\treturn wagers[wagerEventId].takingBets;\n\t}\n\n}\n\n\n\n\n",
  "sourcePath": "/Users/Phil/Desktop/WebProjects/clairvoyance/contracts/Wager.sol",
  "compiler": {
    "name": "solc",
    "version": "0.4.18+commit.9cf6e910.Emscripten.clang"
  },
  "schemaVersion": "1.0.1",
  "updatedAt": "2017-11-26T21:54:25.948Z"
}