{
  "contractName": "Wager",
  "abi": [
    {
      "constant": false,
      "inputs": [
        {
          "name": "wagerEventId",
          "type": "uint256"
        },
        {
          "name": "redWon",
          "type": "bool"
        }
      ],
      "name": "distributeMoney",
      "outputs": [
        {
          "name": "success",
          "type": "bool"
        }
      ],
      "payable": false,
      "stateMutability": "nonpayable",
      "type": "function"
    },
    {
      "constant": false,
      "inputs": [
        {
          "name": "wagerEventId",
          "type": "uint256"
        },
        {
          "name": "thinksRedWinner",
          "type": "bool"
        }
      ],
      "name": "makeBet",
      "outputs": [
        {
          "name": "success",
          "type": "bool"
        }
      ],
      "payable": true,
      "stateMutability": "payable",
      "type": "function"
    },
    {
      "constant": true,
      "inputs": [
        {
          "name": "wagerEventId",
          "type": "uint256"
        }
      ],
      "name": "getMatchId",
      "outputs": [
        {
          "name": "theMatchId",
          "type": "uint256"
        }
      ],
      "payable": false,
      "stateMutability": "view",
      "type": "function"
    },
    {
      "constant": true,
      "inputs": [
        {
          "name": "",
          "type": "uint256"
        }
      ],
      "name": "wagers",
      "outputs": [
        {
          "name": "moneyPoolFor",
          "type": "uint256"
        },
        {
          "name": "moneyPoolAgainst",
          "type": "uint256"
        },
        {
          "name": "numBetsFor",
          "type": "uint256"
        },
        {
          "name": "numBetsAgainst",
          "type": "uint256"
        },
        {
          "name": "matchId",
          "type": "uint256"
        },
        {
          "name": "takingBets",
          "type": "bool"
        }
      ],
      "payable": false,
      "stateMutability": "view",
      "type": "function"
    },
    {
      "constant": false,
      "inputs": [
        {
          "name": "wagerEventId",
          "type": "uint256"
        }
      ],
      "name": "returnMoney",
      "outputs": [],
      "payable": false,
      "stateMutability": "nonpayable",
      "type": "function"
    },
    {
      "constant": true,
      "inputs": [
        {
          "name": "wagerEventId",
          "type": "uint256"
        }
      ],
      "name": "getMoneyPoolFor",
      "outputs": [
        {
          "name": "theMoneyPool",
          "type": "uint256"
        }
      ],
      "payable": false,
      "stateMutability": "view",
      "type": "function"
    },
    {
      "constant": true,
      "inputs": [
        {
          "name": "wagerEventId",
          "type": "uint256"
        }
      ],
      "name": "getNumBetsAgainst",
      "outputs": [
        {
          "name": "theNumBets",
          "type": "uint256"
        }
      ],
      "payable": false,
      "stateMutability": "view",
      "type": "function"
    },
    {
      "constant": false,
      "inputs": [
        {
          "name": "aMatchId",
          "type": "uint256"
        }
      ],
      "name": "newWagerEvent",
      "outputs": [],
      "payable": false,
      "stateMutability": "nonpayable",
      "type": "function"
    },
    {
      "constant": true,
      "inputs": [
        {
          "name": "wagerEventId",
          "type": "uint256"
        }
      ],
      "name": "getTakingBets",
      "outputs": [
        {
          "name": "",
          "type": "bool"
        }
      ],
      "payable": false,
      "stateMutability": "view",
      "type": "function"
    },
    {
      "constant": true,
      "inputs": [],
      "name": "owner",
      "outputs": [
        {
          "name": "",
          "type": "address"
        }
      ],
      "payable": false,
      "stateMutability": "view",
      "type": "function"
    },
    {
      "constant": true,
      "inputs": [
        {
          "name": "wagerEventId",
          "type": "uint256"
        }
      ],
      "name": "getNumBetsFor",
      "outputs": [
        {
          "name": "theNumBets",
          "type": "uint256"
        }
      ],
      "payable": false,
      "stateMutability": "view",
      "type": "function"
    },
    {
      "constant": true,
      "inputs": [
        {
          "name": "wagerEventId",
          "type": "uint256"
        }
      ],
      "name": "getMoneyPoolAgainst",
      "outputs": [
        {
          "name": "theMoneyPool",
          "type": "uint256"
        }
      ],
      "payable": false,
      "stateMutability": "view",
      "type": "function"
    },
    {
      "constant": false,
      "inputs": [
        {
          "name": "wagerEventId",
          "type": "uint256"
        }
      ],
      "name": "stopBetting",
      "outputs": [],
      "payable": false,
      "stateMutability": "nonpayable",
      "type": "function"
    },
    {
      "constant": false,
      "inputs": [
        {
          "name": "newOwner",
          "type": "address"
        }
      ],
      "name": "transferOwnership",
      "outputs": [],
      "payable": false,
      "stateMutability": "nonpayable",
      "type": "function"
    },
    {
      "anonymous": false,
      "inputs": [
        {
          "indexed": false,
          "name": "_wagerEventId",
          "type": "uint256"
        },
        {
          "indexed": false,
          "name": "_isBetting",
          "type": "bool"
        }
      ],
      "name": "TakingBets",
      "type": "event"
    },
    {
      "anonymous": false,
      "inputs": [
        {
          "indexed": false,
          "name": "_enoughToDistribute",
          "type": "bool"
        },
        {
          "indexed": false,
          "name": "_isBetting",
          "type": "bool"
        },
        {
          "indexed": false,
          "name": "_wagerEventId",
          "type": "uint256"
        },
        {
          "indexed": false,
          "name": "clientId",
          "type": "uint256"
        },
        {
          "indexed": false,
          "name": "_redWins",
          "type": "bool"
        }
      ],
      "name": "Distributable",
      "type": "event"
    },
    {
      "anonymous": false,
      "inputs": [
        {
          "indexed": false,
          "name": "_better",
          "type": "address"
        },
        {
          "indexed": false,
          "name": "_amount",
          "type": "uint256"
        },
        {
          "indexed": false,
          "name": "_wagerEventId",
          "type": "uint256"
        },
        {
          "indexed": false,
          "name": "_clientId",
          "type": "uint256"
        },
        {
          "indexed": false,
          "name": "_redWins",
          "type": "bool"
        }
      ],
      "name": "MakeBet",
      "type": "event"
    }
  ],
  "bytecode": "0x6060604052336000806101000a81548173ffffffffffffffffffffffffffffffffffffffff021916908373ffffffffffffffffffffffffffffffffffffffff1602179055506110d2806100536000396000f3006060604052600436106100d0576000357c0100000000000000000000000000000000000000000000000000000000900463ffffffff16806301ed12cb146100d55780632093beb91461011b57806322d0e7ff14610156578063375068e51461018d5780633785fc1a146101eb57806348ed0d011461020e57806361941eb9146102455780636adfd73a1461027c57806377fb346a1461029f5780638da5cb5b146102da578063907270d61461032f578063d75cdc0414610366578063f101f38a1461039d578063f2fde38b146103c0575b600080fd5b34156100e057600080fd5b610101600480803590602001909190803515159060200190919050506103f9565b604051808215151515815260200191505060405180910390f35b61013c60048080359060200190919080351515906020019091905050610703565b604051808215151515815260200191505060405180910390f35b341561016157600080fd5b6101776004808035906020019091905050610a2e565b6040518082815260200191505060405180910390f35b341561019857600080fd5b6101ae6004808035906020019091905050610a4e565b6040518087815260200186815260200185815260200184815260200183815260200182151515158152602001965050505050505060405180910390f35b34156101f657600080fd5b61020c6004808035906020019091905050610a97565b005b341561021957600080fd5b61022f6004808035906020019091905050610ca4565b6040518082815260200191505060405180910390f35b341561025057600080fd5b6102666004808035906020019091905050610cc4565b6040518082815260200191505060405180910390f35b341561028757600080fd5b61029d6004808035906020019091905050610ce4565b005b34156102aa57600080fd5b6102c06004808035906020019091905050610e39565b604051808215151515815260200191505060405180910390f35b34156102e557600080fd5b6102ed610e66565b604051808273ffffffffffffffffffffffffffffffffffffffff1673ffffffffffffffffffffffffffffffffffffffff16815260200191505060405180910390f35b341561033a57600080fd5b6103506004808035906020019091905050610e8b565b6040518082815260200191505060405180910390f35b341561037157600080fd5b6103876004808035906020019091905050610eab565b6040518082815260200191505060405180910390f35b34156103a857600080fd5b6103be6004808035906020019091905050610ecb565b005b34156103cb57600080fd5b6103f7600480803573ffffffffffffffffffffffffffffffffffffffff16906020019091905050611008565b005b6000806000806000806000806000809054906101000a900473ffffffffffffffffffffffffffffffffffffffff1673ffffffffffffffffffffffffffffffffffffffff163373ffffffffffffffffffffffffffffffffffffffff1614151561046057600080fd5b600160008b815260200190815260200160002096506000876000015411801561048d575060008760010154115b955085151561049b57600080fd5b600015158760050160009054906101000a900460ff1615151415156104bf57600080fd5b8660010154876000015401945084935088156105a157600091505b866002015482101561059c57866000015485886006016000858152602001908152602001600020600101540281151561050f57fe5b04925086600601600083815260200190815260200160002060000160009054906101000a900473ffffffffffffffffffffffffffffffffffffffff1673ffffffffffffffffffffffffffffffffffffffff166108fc849081150290604051600060405180830381858888f19350505050151561058a57600080fd5b828403935081806001019250506104da565b610669565b600090505b86600301548110156106685786600101548588600701600085815260200190815260200160002060010154028115156105db57fe5b04925086600701600082815260200190815260200160002060000160009054906101000a900473ffffffffffffffffffffffffffffffffffffffff1673ffffffffffffffffffffffffffffffffffffffff166108fc849081150290604051600060405180830381858888f19350505050151561065657600080fd5b828403935080806001019150506105a6565b5b6000809054906101000a900473ffffffffffffffffffffffffffffffffffffffff1673ffffffffffffffffffffffffffffffffffffffff166108fc859081150290604051600060405180830381858888f1935050505015156106ca57600080fd5b60008760000181905550600087600101819055506000876002018190555060008760030181905550600197505050505050505092915050565b600080600160008581526020019081526020016000209050600115158160050160009054906101000a900460ff16151514151561073f57600080fd5b82156108b6576060604051908101604052803373ffffffffffffffffffffffffffffffffffffffff16815260200134815260200184151581525081600601600083600201600081548092919060010191905055815260200190815260200160002060008201518160000160006101000a81548173ffffffffffffffffffffffffffffffffffffffff021916908373ffffffffffffffffffffffffffffffffffffffff1602179055506020820151816001015560408201518160020160006101000a81548160ff0219169083151502179055509050503481600001600082825401925050819055507f97a067ee6eaf8ba564c81510b8f7c38f2f3de638915889b7aa92dbb31cba479c333486846002015487604051808673ffffffffffffffffffffffffffffffffffffffff1673ffffffffffffffffffffffffffffffffffffffff168152602001858152602001848152602001838152602001821515151581526020019550505050505060405180910390a1610a23565b6060604051908101604052803373ffffffffffffffffffffffffffffffffffffffff16815260200134815260200184151581525081600701600083600301600081548092919060010191905055815260200190815260200160002060008201518160000160006101000a81548173ffffffffffffffffffffffffffffffffffffffff021916908373ffffffffffffffffffffffffffffffffffffffff1602179055506020820151816001015560408201518160020160006101000a81548160ff0219169083151502179055509050503481600101600082825401925050819055507f97a067ee6eaf8ba564c81510b8f7c38f2f3de638915889b7aa92dbb31cba479c333486846003015487604051808673ffffffffffffffffffffffffffffffffffffffff1673ffffffffffffffffffffffffffffffffffffffff168152602001858152602001848152602001838152602001821515151581526020019550505050505060405180910390a15b600191505092915050565b600060016000838152602001908152602001600020600401549050919050565b60016020528060005260406000206000915090508060000154908060010154908060020154908060030154908060040154908060050160009054906101000a900460ff16905086565b60008060008060009054906101000a900473ffffffffffffffffffffffffffffffffffffffff1673ffffffffffffffffffffffffffffffffffffffff163373ffffffffffffffffffffffffffffffffffffffff16141515610af757600080fd5b600015156001600086815260200190815260200160002060050160009054906101000a900460ff161515141515610b2d57600080fd5b600160008581526020019081526020016000209250600091505b8260020154821015610bf05782600601600083815260200190815260200160002060000160009054906101000a900473ffffffffffffffffffffffffffffffffffffffff1673ffffffffffffffffffffffffffffffffffffffff166108fc846006016000848152602001908152602001600020600101549081150290604051600060405180830381858888f193505050501515610be357600080fd5b8180600101925050610b47565b600090505b8260030154811015610c9e5782600701600082815260200190815260200160002060000160009054906101000a900473ffffffffffffffffffffffffffffffffffffffff1673ffffffffffffffffffffffffffffffffffffffff166108fc846007016000848152602001908152602001600020600101549081150290604051600060405180830381858888f193505050501515610c9157600080fd5b8080600101915050610bf5565b50505050565b600060016000838152602001908152602001600020600001549050919050565b600060016000838152602001908152602001600020600301549050919050565b60008060009054906101000a900473ffffffffffffffffffffffffffffffffffffffff1673ffffffffffffffffffffffffffffffffffffffff163373ffffffffffffffffffffffffffffffffffffffff16141515610d4157600080fd5b6002600081548092919060010191905055905060c060405190810160405280600081526020016000815260200160008152602001600081526020018381526020016001151581525060016000838152602001908152602001600020600082015181600001556020820151816001015560408201518160020155606082015181600301556080820151816004015560a08201518160050160006101000a81548160ff0219169083151502179055509050507ff658db2af11a1537110b28cd728b8ef903d6dcfca78aa9c3008eaf973b794d0181600160405180838152602001821515151581526020019250505060405180910390a15050565b60006001600083815260200190815260200160002060050160009054906101000a900460ff169050919050565b6000809054906101000a900473ffffffffffffffffffffffffffffffffffffffff1681565b600060016000838152602001908152602001600020600201549050919050565b600060016000838152602001908152602001600020600101549050919050565b6000806000809054906101000a900473ffffffffffffffffffffffffffffffffffffffff1673ffffffffffffffffffffffffffffffffffffffff163373ffffffffffffffffffffffffffffffffffffffff16141515610f2957600080fd5b600115156001600085815260200190815260200160002060050160009054906101000a900460ff161515141515610f5f57600080fd5b60016000848152602001908152602001600020915060008260050160006101000a81548160ff02191690831515021790555060008260000154118015610fa9575060008260010154115b90507f84aab745395eb777d833c83e9f20ad16dccb5f9177d4fcc02b982f7a7b06176d818360050160009054906101000a900460ff166040518083151515158152602001821515151581526020019250505060405180910390a1505050565b6000809054906101000a900473ffffffffffffffffffffffffffffffffffffffff1673ffffffffffffffffffffffffffffffffffffffff163373ffffffffffffffffffffffffffffffffffffffff1614151561106357600080fd5b806000806101000a81548173ffffffffffffffffffffffffffffffffffffffff021916908373ffffffffffffffffffffffffffffffffffffffff160217905550505600a165627a7a723058208511d6e76d42f5cc03ab5602dcd2750eef6855cf218c1af78165d1ad4e5f73520029",
  "source": "pragma solidity ^0.4.4;\n\ncontract owned {\n\n\taddress public owner;\n\n\tfunction owned() public {\n\t\towner = msg.sender;\n\t}\n\n\tmodifier onlyOwner {\n\t\trequire(msg.sender == owner);\n\t\t_;\n\t}\n\n\tfunction transferOwnership(address newOwner) public onlyOwner {\n\t\towner = newOwner;\n\t}\n}\n\ncontract Wager is owned {\n\n\tstruct Bet {\n\t\taddress clientAddr;\n\t\tuint amount;\n\t\tbool redWins;\n\t}\n\n\tstruct WagerEvent {\n\t\tuint moneyPoolFor;\n\t\tuint moneyPoolAgainst;\n\t\tuint numBetsFor;\n\t\tuint numBetsAgainst;\n\t\tuint matchId;\n\t\tbool takingBets; \n\t\tmapping(uint => Bet) betsFor; \n\t\tmapping(uint => Bet) betsAgainst;\n\t}\n\n\tevent TakingBets(uint _wagerEventId, bool _isBetting);\n\tevent Distributable(bool _enoughToDistribute, bool _isBetting);\n\tevent MakeBet(address _better, uint _amount, uint _wagerEventId, uint _clientId, bool _redWins);\n\n\tmapping(uint => WagerEvent) public wagers;\n\tuint numWagerEvents;\n\n\tfunction newWagerEvent(uint aMatchId) public onlyOwner {\n\t\tuint wagerEventId = numWagerEvents++;\n\t\twagers[wagerEventId] = WagerEvent(0, 0, 0, 0, aMatchId, true);\n\t\tTakingBets(wagerEventId, true);\n\t}\n\n\tfunction makeBet(uint wagerEventId, bool thinksRedWinner) public payable returns (bool success){\n\t    WagerEvent storage w = wagers[wagerEventId];\n\t\trequire(w.takingBets == true);\n\n\t\tif(thinksRedWinner){\n\t\t\tw.betsFor[w.numBetsFor++] = Bet(msg.sender, msg.value, thinksRedWinner);\n\t\t\tw.moneyPoolFor += msg.value;\n\t\t\tMakeBet(msg.sender, msg.value, wagerEventId, w.numBetsFor, thinksRedWinner);\n\n\t\t} else {\n\t\t\tw.betsAgainst[w.numBetsAgainst++] = Bet(msg.sender, msg.value, thinksRedWinner);\n\t\t\tw.moneyPoolAgainst += msg.value;\n\t\t\tMakeBet(msg.sender, msg.value, wagerEventId, w.numBetsAgainst, thinksRedWinner);\n\t\t}\n\n\t\treturn true;\n\t}\n\n\tfunction stopBetting(uint wagerEventId) public onlyOwner {\n\t    require(wagers[wagerEventId].takingBets == true);\n\t\tWagerEvent storage w = wagers[wagerEventId];\n\t\tw.takingBets = false;\n\t\tbool moneyPoolSufficient = w.moneyPoolFor > 0 && w.moneyPoolAgainst > 0;\n\t\tDistributable(moneyPoolSufficient, w.takingBets);\n\t}\n\n    function distributeMoney(uint wagerEventId , bool redWon) public onlyOwner returns (bool success) {\n    \tWagerEvent storage w = wagers[wagerEventId]; \n    \tbool moneyPoolSufficient = w.moneyPoolFor > 0 && w.moneyPoolAgainst > 0;\n    \trequire(moneyPoolSufficient);\n    \trequire(w.takingBets == false);\n\n    \tuint totalMoneyPool = w.moneyPoolFor + w.moneyPoolAgainst;\n    \tuint moneyPoolRemaining = totalMoneyPool;\n    \tuint moneyToDistribute;\n\n    \tif(redWon){ // this is ugly, but you can't pass reference pointers for items in storage easily\n\n\t    \tfor(uint i = 0; i < w.numBetsFor; i++){\n\t    \t\tmoneyToDistribute = (w.betsFor[i].amount * totalMoneyPool) / w.moneyPoolFor;\n\t    \t\tw.betsFor[i].clientAddr.transfer(moneyToDistribute);\n    \t\t    moneyPoolRemaining = moneyPoolRemaining - moneyToDistribute;\n\t    \t}\n\n\t \t} else {\n\n\t \t\tfor(uint j = 0; j < w.numBetsAgainst; j++){\n\t    \t\tmoneyToDistribute = (w.betsAgainst[i].amount * totalMoneyPool) / w.moneyPoolAgainst;\n\t    \t\tw.betsAgainst[j].clientAddr.transfer(moneyToDistribute);\n\t    \t\tmoneyPoolRemaining = moneyPoolRemaining - moneyToDistribute;\n\t    \t}\n\t \t}\n\n\t \t//send remaining ether to owner\n\t \towner.transfer(moneyPoolRemaining);\n\n\t \t//invalidate contract\n\t \tw.moneyPoolFor = 0;\n\t \tw.moneyPoolAgainst = 0;\n\t \tw.numBetsFor = 0;\n\t \tw.numBetsAgainst = 0;\n\n        return true;\n    }\n    \n    function returnMoney(uint wagerEventId) public onlyOwner {\n        require(wagers[wagerEventId].takingBets == false);\n        WagerEvent storage w = wagers[wagerEventId]; \n        \n        for(uint i = 0; i < w.numBetsFor; i++){\n    \t\tw.betsFor[i].clientAddr.transfer(w.betsFor[j].amount);\n    \t}\n    \t\n        for(uint j = 0; j < w.numBetsAgainst; j++){\n\t        w.betsAgainst[j].clientAddr.transfer(w.betsAgainst[j].amount);\n\t    }\n\t    \n    }\n\n    \n    //All the getters \n\n    //make some for getting Bet data\n\n\tfunction getMoneyPoolFor(uint wagerEventId) public constant returns (uint theMoneyPool){\n\t\treturn wagers[wagerEventId].moneyPoolFor;\n\t}\n\n\tfunction getMoneyPoolAgainst(uint wagerEventId) public constant returns (uint theMoneyPool){\n\t\treturn wagers[wagerEventId].moneyPoolAgainst;\n\t}\n\n\tfunction getMatchId(uint wagerEventId) public constant returns (uint theMatchId){\n\t\treturn wagers[wagerEventId].matchId;\n\t}\n\n\tfunction getNumBetsAgainst(uint wagerEventId) public constant returns(uint theNumBets){\n\t\treturn wagers[wagerEventId].numBetsAgainst;\n\t}\n\n\tfunction getNumBetsFor(uint wagerEventId) public constant returns(uint theNumBets){\n\t\treturn wagers[wagerEventId].numBetsFor;\n\t}\n\n\tfunction getTakingBets(uint wagerEventId) public constant returns(bool){\n\t\treturn wagers[wagerEventId].takingBets;\n\t}\n\n}\n\n\n\n\n",
  "sourcePath": "/Users/Phil/Desktop/WebProjects/clairvoyance/contracts/Wager.sol",
  "compiler": {
    "name": "solc",
    "version": "0.4.18+commit.9cf6e910.Emscripten.clang"
  },
  "schemaVersion": "1.0.1",
  "updatedAt": "2017-11-29T07:18:39.262Z"
}