{
  "contractName": "Wager",
  "abi": [
    {
      "constant": false,
      "inputs": [
        {
          "name": "wagerEventId",
          "type": "uint256"
        },
        {
          "name": "isRedWinner",
          "type": "bool"
        }
      ],
      "name": "makeBet",
      "outputs": [
        {
          "name": "theMatchId",
          "type": "uint256"
        }
      ],
      "payable": true,
      "stateMutability": "payable",
      "type": "function"
    },
    {
      "constant": true,
      "inputs": [
        {
          "name": "wagerEventId",
          "type": "uint256"
        }
      ],
      "name": "getMatchId",
      "outputs": [
        {
          "name": "theMatchId",
          "type": "uint256"
        }
      ],
      "payable": false,
      "stateMutability": "view",
      "type": "function"
    },
    {
      "constant": true,
      "inputs": [
        {
          "name": "",
          "type": "uint256"
        }
      ],
      "name": "wagers",
      "outputs": [
        {
          "name": "moneyPool",
          "type": "uint256"
        },
        {
          "name": "numBets",
          "type": "uint256"
        },
        {
          "name": "matchId",
          "type": "uint256"
        }
      ],
      "payable": false,
      "stateMutability": "view",
      "type": "function"
    },
    {
      "constant": true,
      "inputs": [
        {
          "name": "wagerEventId",
          "type": "uint256"
        }
      ],
      "name": "getMoneyPool",
      "outputs": [
        {
          "name": "theMoneyPool",
          "type": "uint256"
        }
      ],
      "payable": false,
      "stateMutability": "view",
      "type": "function"
    },
    {
      "inputs": [
        {
          "name": "wagerEventId",
          "type": "uint256"
        }
      ],
      "payable": false,
      "stateMutability": "view",
      "type": "function",
      "constant": true,
      "name": "getNumBets",
      "outputs": [
        {
          "name": "theNumBets",
          "type": "uint256"
        }
      ]
    },
    {
      "constant": false,
      "inputs": [
        {
          "name": "wagerEventId",
          "type": "uint256"
        }
      ],
      "name": "checkWagerEvent",
      "outputs": [
        {
          "name": "success",
          "type": "bool"
        }
      ],
      "payable": false,
      "stateMutability": "nonpayable",
      "type": "function"
    },
    {
      "inputs": [],
      "payable": false,
      "stateMutability": "nonpayable",
      "type": "constructor"
    }
  ],
  "bytecode": "0x6060604052341561000f57600080fd5b6102aa8061001e6000396000f300606060405260043610610078576000357c0100000000000000000000000000000000000000000000000000000000900463ffffffff1680632093beb91461007d57806322d0e7ff146100a0578063375068e5146100d7578063503bd0c11461011c5780637708e43b14610153578063a27555811461018a575b600080fd5b61009e600480803590602001909190803515159060200190919050506101c5565b005b34156100ab57600080fd5b6100c160048080359060200190919050506101ec565b6040518082815260200191505060405180910390f35b34156100e257600080fd5b6100f8600480803590602001909190505061020b565b60405180848152602001838152602001828152602001935050505060405180910390f35b341561012757600080fd5b61013d6004808035906020019091905050610235565b6040518082815260200191505060405180910390f35b341561015e57600080fd5b6101746004808035906020019091905050610254565b6040518082815260200191505060405180910390f35b341561019557600080fd5b6101ab6004808035906020019091905050610273565b604051808215151515815260200191505060405180910390f35b34600080848152602001908152602001600020600001600082825401925050819055505050565b6000806000838152602001908152602001600020600201549050919050565b60006020528060005260406000206000915090508060000154908060010154908060020154905083565b6000806000838152602001908152602001600020600001549050919050565b6000806000838152602001908152602001600020600101549050919050565b6000600190509190505600a165627a7a72305820eec2ab9fd3469ad65e86be5a4be5cd9bc7fb3edad0be30163b768d0397a179030029",
  "source": "pragma solidity ^0.4.4;\n\ncontract Wager {\n\n\n\tstruct Bet {\n\t\taddress client;\n\t\tuint amount;\n\t\tbool redWins;\n\t}\n\n\tstruct WagerEvent {\n\t\tuint moneyPool;\n\t\tuint numBets;\n\t\tuint matchId;\n\t\tmapping(address => Bet) bets; \n\t}\n\n\tmapping(uint => WagerEvent) public wagers;\n\n\tfunction Wager(){\n\n\t}\n\n\tfunction getMoneyPool(uint wagerEventId) public constant returns (uint theMoneyPool){\n\t\treturn wagers[wagerEventId].moneyPool;\n\t}\n\n\tfunction getMatchId(uint wagerEventId) public constant returns (uint theMatchId){\n\t\treturn wagers[wagerEventId].matchId;\n\t}\n\n\tfunction getNumBets(uint wagerEventId) public constant returns(uint theNumBets){\n\t\treturn wagers[wagerEventId]. numBets;\n\t}\n\n\tfunction makeBet(uint wagerEventId, bool isRedWinner) payable {\n\t\t//storage keyword?\n\t\twagers[wagerEventId].moneyPool += msg.value;\n\t}\n\n    function checkWagerEvent(uint wagerEventId) returns (bool success) {\n        return true;\n    }\n\n}\n\n\n\n\n",
  "sourcePath": "/Users/Phil/Desktop/WebProjects/clairvoyance/contracts/Wager.sol",
  "compiler": {
    "name": "solc",
    "version": "0.4.18+commit.9cf6e910.Emscripten.clang"
  },
  "schemaVersion": "1.0.1",
  "updatedAt": "2017-11-25T08:20:45.199Z"
}